:100000000C9499040C94C1040C94C1040C94C10484
:100010000C94C1040C94C1040C94C1040C94C1044C
:100020000C94C1040C94C1040C94E0160C94221698
:100030000C9438290C94C1040C94C1040C94C10490
:100040000C94C1040C94C1040C94C1040C94C1041C
:100050000C94C1040C945C280C94C1040C94C1044D
:100060000C94C1040C94C1040C94C1040C94C104FC
:100070000C94C1040C94C1040C94C1040C94C104EC
:100080000C94C1040C94C1040C94C1040C94C104DC
:100090000C94C1040C94C1040C94C1040C94C104CC
:1000A0000C94C1040C94C1040C94C104B30627073A
:1000B000BB0685068906BF068C06C206CD069706D6
:1000C0001D079B06D1069F06D506FF06A306D90687
:1000D0000907A906DF06E9069006C6069306C906C3
:1000E000AE06E406F506150717078106B7063007C2
:1000F00056075C074A075007620768076E073F0804
:100100003F0871087108EA0806092D0A2D0A0B0933
:100110009909AA09AA09411468140016681400165E
:10012000B014D3140016C215D5150000000000004D
:1001300000000000000000000000000000000000BF
:1001400000000000000000000000000000007E0F22
:1001500000D4FFFFFFC7000000780000000000008F
:1001600000002A2B28000000000000000000000012
:10017000000000000029000000002C1E3420212275
:1001800024342627252E362D3738271E1F202122DE
:10019000232425263333362E37381F040506070857
:1001A000090A0B0C0D0E0F10111213141516171847
:1001B000191A1B1C1D2F3130232D35040506070885
:1001C000090A0B0C0D0E0F10111213141516171827
:1001D000191A1B1C1D2F3130354C0102E078010328
:1001E000E0010435307C0102E0650103E000050117
:1001F0000902A10185020901A100050919012908C7
:1002000015002501950875018102050109300931A4
:100210001581257F95027508810609381581257F8E
:10022000950175088106050C0A38021581257F9510
:100230000175088106C0C005010980A10185031967
:10024000012AB700150126B700950175108100C07D
:10025000050C0901A101850419012AA00215012636
:10026000A002950175108100C005010906A10105D4
:100270000719E029E7150025019508750181029508
:1002800001750881010507190029FF150026FF00E7
:100290009506750881000508190129059505750160
:1002A0009102950175039101C009023B0002010012
:1002B000A0FA090400000103010100092111010055
:1002C0000122400007058103080001090401000123
:1002D00003000000092111010001227B00070582B3
:1002E000032000011201000200000008EDFE5B0087
:1002F0000100010200012A035500530042002000C2
:1003000074006F002000550053004200200043009D
:100310006F006E0076006500720074006500720068
:100320000000080351004D004B00000004030904C5
:1003300000000000000000000400050006000700A7
:10034000080009000A000B000C000D000E000F0051
:100350001000110012001300140015001600170001
:10036000180019001A001B001C001D001E001F00B1
:100370002000210022002300240025002600270061
:10038000284129002A002B002C422D002E002F008E
:1003900030003100000033003400350036003700F3
:1003A000380029213A003B003C003D003E003F0060
:1003B0004000410042004300440045004600470021
:1003C000480049004A004B004C004D004E004F00D1
:1003D0005000510052005300540055005600570081
:1003E000580059005A005B005C005D005E005F0031
:1003F0006000610062006300000065000000000012
:1004000000000000000000000000000000000000EC
:1004100000000000000000000000000000000000DC
:1004200000000000000000000000000000000000CC
:1004300000000000000000000000000000000000BC
:1004400000000000000000000000000000000000AC
:10045000000000000000000000000000000000009C
:10046000000000000000000000000000000000008C
:10047000000000000000000000000000000000007C
:10048000000000000000000000000000000000006C
:10049000000000000000000000000000000000005C
:1004A000000000000000000000000000000000004C
:1004B000000000000000000000000000000000003C
:1004C000000000000000000000000000000000002C
:1004D000000000000000000000000000000000001C
:1004E000000000000000000000000000000000000C
:1004F0002152E100E200E300E400E500E600E7004D
:1005000000000000000000000000000000000000EB
:1005100000000000000000000000000000000000DB
:1005200000000000000000000000000000000000CB
:100530000000000000000000007E01000605010030
:10054000AC001005010050000100510052004F00A6
:100550000100510001005200AE00AB004600120540
:100560000100A8001A05A9000100AA003A003B00FA
:100570003C003D003E003F0040004100420043007F
:10058000490001004C003A052C21440045000100BF
:100590004B000F08000001004E0017054A004D00F7
:1005A0000100E00001000100010001000100010064
:1005B0000100010001000100010001000100010033
:1005C0000100010001000100010001000100010023
:1005D0000100010001000100010001000100010013
:1005E0000100010001000100010001000100010003
:1005F00001000100010001000000010000000000F6
:1006000000000000000000000000000000000000EA
:1006100000000000000000000000000000000000DA
:1006200000000000000000000000000000000000CA
:1006300000000000000000000000000000000000BA
:1006400000000000000000000000000000000000AA
:10065000000000000000000000000000000000009A
:10066000000000000000000000000000000000008A
:10067000000000000000000000000000000000007A
:10068000000000000000000000000000000000006A
:10069000000000000000000000000000000000005A
:1006A000000000000000000000000000000000004A
:1006B000000000000000000000000000000000003A
:1006C000000000000000000000000000000000002A
:1006D000000000000000000000000000000000001A
:1006E000000000000000000000000000000000000A
:1006F0003900E100E200E3000100E5000100010033
:1007000000000000000000000000000000000000E9
:1007100000000000000000000000000000000000D9
:1007200000000000000000000000000000000000C9
:100730000000000000000000CF0001000100D00018
:10074000D200DA00010001000100D100D200010056
:100750000100010001000100D100D900CE0001001C
:1007600001000100CD00DC000100DB000100010000
:100770000100010001000100010001000100010071
:100780000100010001000100010001000100010061
:100790000100010000000100010001000100010052
:1007A0000100010001000100010001000100010041
:1007B0000100010001000100010001000100010031
:1007C0000100010001000100010001000100010021
:1007D0000100010001000100010001000100010011
:1007E0000100010001000100010001000100010001
:1007F00001000100010001000000010000000000F4
:1008000000000000000000000000000000000000E8
:1008100000000000000000000000000000000000D8
:1008200000000000000000000000000000000000C8
:1008300000000000000000000000000000000000B8
:1008400000000000000000000000000000000000A8
:100850000000000000000000000000000000000098
:100860000000000000000000000000000000000088
:100870000000000000000000000000000000000078
:100880000000000000000000000000000000000068
:100890000000000000000000000000000000000058
:1008A0000000000000000000000000000000000048
:1008B0000000000000000000000000000000000038
:1008C0000000000000000000000000000000000028
:1008D0000000000000000000000000000000000018
:1008E0000000000000000000000000000000000008
:1008F00001000100010001000100010001000100F0
:1009000000000000000000000000000000000000E7
:1009100000000000000000000000000000000000D7
:1009200000000000000000000000000000000000C7
:100930001C2111241FBECFEFDAE0DEBFCDBF11E0D6
:10094000A0E0B1E0E2E0F3E602C005900D92A63A25
:10095000B107D9F724E0A6EAB1E001C01D92A732A1
:10096000B207E1F714E0C9E9D4E004C02197FE0121
:100970000E942131C839D107C9F70E94631D0C9428
:100980007F310C940000AAE0B0E0E9ECF4E00C94B4
:100990002931FC018081918123813481232B31F025
:1009A0009F3F31F491E08F3F19F403C091E001C003
:1009B00090E090FD98C57F0185E0DE0116960190DC
:1009C0000D928A95E1F7F70122818E819F81222382
:1009D00049F00E94441A182F682F8E819F810E942F
:1009E000761C03C00E94431C182F6E817F81812FCB
:1009F0000E94C8208C018115FEE79F0709F0B5C051
:100A0000F7018281882309F4C2C02AEDC22E21E0B9
:100A1000D22E3AE0432EF6012491222309F4B7C0E6
:100A2000213009F047C031968491813031F4F2E0F1
:100A3000CF0ED11CF601849190C0823041F4F2E0D7
:100A4000CF0ED11CF60184910E94142F8AC08330EE
:100A500041F4F2E0CF0ED11CF60184910E94D82E11
:100A600080C0843009F07CC0F2E0CF0ED11CF601CA
:100A7000249180E090E030E0205331092A303105A4
:100A800070F4489EA001499E500D1124C901840FA5
:100A9000951FFFEFCF1ADF0AF6012491ECCF0097E4
:100AA00009F45FC0EFE9FFE03197F1F700C0000003
:100AB0000197F5CFE22FF0E0E65AFE4F5490822FD7
:100AC00086958695869590E0FC01E65BFE4F6490E6
:100AD0002770712C022E02C0759467940A94E2F775
:100AE000F1E06F227724FC01E65CFE4F8490912CAC
:100AF000022E02C0959487940A94E2F731E0832293
:100B00009924FC01E65DFE4FA490B12C02C0B5947F
:100B1000A7942A95E2F781E0A822BB24611471040E
:100B200019F081EE0E94142F8114910419F086EEC1
:100B30000E94142F852D0E94421D8114910419F0EA
:100B400086EE0E94D82E6114710419F081EE0E9485
:100B5000D82EA114B10429F08CE20E94421D01C0DC
:100B60006F019FEFC91AD90A56CF83379C4779F492
:100B7000F7018281882309F4CFC18091230488235F
:100B800019F00E94F12AC8C10E94FF2AC5C1D09065
:100B90009F0280911F04D82A80912304811106C0EE
:100BA000F2E2DF1285C00E94FF2A82C00E942C2937
:100BB00088579C4E9093210480932004F7018281F2
:100BC000882309F475C08D2D8D7909F06CC000342F
:100BD000F2E51F07B0F4011522E5120708F068C01E
:100BE000011530E4130740F4011580E21807F0F412
:100BF000063E1105B9F55CC0011590E5190758F1DD
:100C000031C0043BE2E51E0709F452C0C801053BB0
:100C1000F2E51F0730F4805692458034910510F5B7
:100C200047C0805C92458097E8F442C0F701858117
:100C3000807FA9F4812F8F718231B1F028F4823046
:100C400091F581EE90E012C0843191F1863159F531
:100C500086EE92E10BC0F7018581807FA9F1C80182
:100C6000992704C0C80102C085EE90E010922204CA
:100C70008832910530F48E319105C0F4049798F0D4
:100C80000EC08D32910559F018F48A9779F00BC097
:100C90008C34910559F08D32924041F004C082E0CD
:100CA0008093220403C00E94F12A02C00E94951979
:100CB000F801E851FC47E730F10508F4E7C0F70117
:100CC0008281882309F43AC110922604C801905702
:100CD000839708F00CC184E090E00E947B2F9093F2
:100CE000A5028093A402F801E150F047E232F10539
:100CF00020F4EA5AFF4F0C9421318091A4028160C4
:100D0000ACC08091A5028860B4C08091A4028260CA
:100D1000A4C08091A40220C08091A40288609DC0DC
:100D20008091A5021EC08091A5028260A2C0809120
:100D3000A402806192C08091A40280628EC08091E2
:100D4000A40280648AC00E940A1D8091A402806867
:100D500084C08091A402886084607FC08091A502D5
:100D60008260816086C08091A4028E7F76C080916F
:100D7000A502877F7EC08091A4028D7F6EC0809186
:100D8000A40220C08091A402877F67C08091A50241
:100D90001EC08091A5028D7F6CC08091A4028F7EC1
:100DA0005CC08091A4028F7D58C08091A4028F7B8B
:100DB00054C00E940A1D8091A4028F774EC080917A
:100DC000A402877F8B7F49C08091A5028D7F8E7F93
:100DD00050C08091A40282FB222720F991E0922743
:100DE00090FB82F990FB83F938C08091A502982F7F
:100DF000909591708E7F892B90FB81F93AC08091FC
:100E0000A40286FB222720F991E0922790FB86F925
:100E100024C00E940A1D8091A40287FB222720F98A
:100E200091E0922790FB87F918C061E001C060E073
:100E30008EE090E00E94812F1EC08091A40284FB6E
:100E4000222720F991E0922790FB84F906C0809137
:100E5000A402982F909590FB80F98093A4020BC078
:100E60008091A50283FB222720F991E0922790FB35
:100E700083F98093A5026091A4027091A50284E099
:100E800090E00E949F2F0E940A1D46C0E858FF4F25
:100E90000C94213106E221EE41EE6AE17CE723C0A9
:100EA00007E225EE45EE6BE17CE71DC006E221EE90
:100EB00040EE68E17CE717C007E225EE44EE69E109
:100EC0007CE711C006E221EE42EE6CE17CE70BC04C
:100ED00007E225EE46EE6DE17CE705C008E221E081
:100EE00045EE6EE17CE7C7010E94882A15C00631F5
:100EF000FCE71F0741F580911F048A7A91E009F40D
:100F000090E09093A8018111D8C269E286ED91E04A
:100F10000E9461290E94951980919602877009F4B8
:100F2000E2C2F7018281882309F4DDC28091A50223
:100F300082FFD9C282E00E94C11CD5C206312CE7D3
:100F4000120709F4BCC2F7018281882309F44BC05F
:100F50000330FCE71F0799F148F401153CE713073C
:100F600091F001308CE7180781F13DC00B359CE70B
:100F70001907B1F10C35ECE71E0751F10A351C4792
:100F800091F581E02EC00E940A1D2FEF34E38CE022
:100F9000215030408040E1F700C0000087E797E72C
:100FA00090930108809300089AE088E10FB6F894C6
:100FB000A895809360000FBE90936000FFCF6FEF05
:100FC0007FEF80E090E00E949F2F0E94910FA4CFBE
:100FD0008091A50282FB882780F991E0892701C0D2
:100FE00080E00E94DE1CF70182810081118188234C
:100FF00049F0C8010E94441AD82E682FC8010E94E7
:10100000761C04C0C8010E94431CD82EB8018D2D47
:101010000E94C8200E94EA178C01982EF701D28006
:10102000A580A2949FE0A922809196028770B9F0D2
:10103000DD20A9F0812F807F803421F080E2800FB5
:10104000883068F08091A50282FF09C082E00E948A
:10105000C11C809196028770CC24C3948111C12C4D
:10106000B12EB2948FE0B8228B2D90E08C30910598
:1010700008F0F3C1FC01E158FF4F0C942131812F9E
:10108000807F1F70882311F01295107FDD20B9F04A
:10109000112309F4D0C180E2800F883010F0911044
:1010A00006C090911F04192B10931F0405C0909146
:1010B0002204192B109322040E949519BCC1802F81
:1010C0000E94D82E112309F4C8C1005E083080F1B7
:1010D000992071F110959091220419231093220404
:1010E0002AC0812F807F1F70803211F01295107FEF
:1010F000992029F0F1E09F1609F441C04FC080917A
:10110000A50282FD1BC0DD2069F0112339F090910A
:101110001F04192B10931F040E94951980E00E9450
:10112000142F9BC180E00E94D82E112309F495C191
:10113000812F0E948E190E9495198FC1DD2081F0A8
:1011400080919F02AA2051F021E0A21207C0182B23
:10115000181709F482C110939F027FC1812B16C01A
:10116000A11003C00E94881931C031E0A31609F410
:1011700074C1812F0E94311D0E9488196EC1DD202B
:1011800041F085E08A1508F468C1812F0E94381D5E
:1011900064C194E09A1508F460C118C0DD2049F0DC
:1011A000AA2099F3F701858180FF45C18F7085835F
:1011B000ECCFAA2059F0093309F04CC1FFEF27EE1C
:1011C00033E0F15020403040E1F742C1812F0E94CE
:1011D000311D43C1812F86958695837019F081302A
:1011E00059F03BC1DD2019F0C801937002C080E0C6
:1011F00090E00E94A02939C1DD2019F0C801937048
:1012000002C080E090E00E947B292FC16D2D802FCD
:101210000E94002E2AC1812F837009F041C0D11095
:1012200020C1302F329536953770330F330F802F12
:101230008F7090E0032E02C0880F991F0A94E2F786
:1012400004FF0BC04FE050E002C0440F551F3A9519
:10125000E2F79A012095309502C020E030E0169523
:1012600016951370123099F068F44091A0025091D5
:10127000A102113029F0822B932B8423952304C0E3
:10128000842B952B822B932B0E94051DEAC0822B69
:10129000932B2091A0023091A10282279327F4CFB3
:1012A000DD2019F0812F817001C08695882309F413
:1012B000D8C0302F329536953770330F330F802FCB
:1012C0008F7090E0032E02C0880F991F0A94E2F7F6
:1012D00004FF0BC04FE050E002C0440F551F3A9589
:1012E000E2F79A012095309502C020E030E0169593
:1012F00016951370123079F0B8F44091A202509113
:10130000A302113029F0822B932B842395230EC046
:10131000842B952B09C0822B932B2091A202309114
:10132000A3028227932702C0822B932B0E94AA1C20
:1013300098C01F70DD2039F0812F0E94F51C802F8E
:101340000E94381D8EC0802F0E94311D812F0E9467
:10135000AF1C87C0802F92EF991699F1991538F03C
:10136000E0EF9E1659F0F1EF9F1631F160C023EFC8
:10137000921671F134EF9316D9F059C0DD2099F02F
:1013800084E08A1508F469C01F7181E090E002C012
:10139000880F991F1A95E2F72091A2023091A302BB
:1013A0008227932722C095E09A1508F456C0ECCF07
:1013B0008091A50282FD1CC0DD2029F0812F8F7154
:1013C00029C0DD20D9F3812F8F710E94AF1C45C049
:1013D000DD2049F01F7181E090E002C0880F991F65
:1013E0001A95E2F702C080E090E00E94AA1C35C086
:1013F000DD2099F01F71812F0E94F51C8091A502BC
:1014000082FF07C0E8E01E9FC00111248360809323
:101410009602812F0E94F51C20C081E00E94C11C11
:10142000F1E0FA15D0F482E00E94C11C16C0DD2064
:1014300021F0AA2019F2802F72CEAA2021F289333E
:1014400049F42FEF37EE83E0215030408040E1F740
:1014500000C00000802F0E94D82E88EF8B0D8430B2
:1014600020F40E94C5290E94AB0FCC20A9F08091E6
:10147000960280FD11C0F7011282859585958595AC
:101480000E94F51CC7010E94C304809196028595B5
:10149000859585950E94AF1C85E0F701DE011196C8
:1014A00001900D928A95E1F709811A81C8010E9485
:1014B000431CB8010E94C82016C065E327CD809167
:1014C000A80181110EC089E2E6EDF1E02CED31E0DA
:1014D0009281891301C0128231962E173F07C1F7FE
:1014E00019CD85E3F1CF2A96E0E10C9445310895BA
:1014F000EF92FF92CF93DF93DC01E70152968C913C
:101500005297823049F11F966C931F9750964C93D7
:1015100050979B8193709330F9F49A8197FF1CC088
:101520009E8158962C915897291718F458969C9399
:101530005897E82FF0E09F01220F331FE20FF31FAF
:10154000EA0FFB1F9A819F7097839C81908794E09C
:1015500091878F5F52968C93DF91CF91FF90EF90A0
:101560000895EF92FF920F9302970E94780A0F91CD
:10157000FF90EF900895860F911D860F911DFC013D
:1015800085859685089581E0613009F080E00895B1
:1015900081E0633009F080E00895FC0186810895C0
:1015A000CF93DF93EC018C819D81DC01ED91FC9167
:1015B0000480F581E02D6E8109951F86188A81E0EF
:1015C0008A8B1E821B8A1C8A1D8A1E8A1F8A80E0C3
:1015D000DF91CF910895FC0187890895860F911DB1
:1015E000860F911DFC015687458781E00895A8E08C
:1015F000B0E0EDEFFAE00C943731E22F29833A8323
:101600004B835C836D837E838F8398878091B60143
:10161000E82BE093B601FE013396AE01475F5F4FC2
:101620002191243088F0A8EBB1E080E090E03D917A
:10163000311106C0DC01AA54BE4F12962C9304C08F
:1016400001968630910599F7E417F50749F7289632
:10165000E2E00C94533181E0089580E0089508950C
:1016600080E00895A4E0B0E0E8E3FBE00C942731CB
:101670006C017A8369835C834B834C0180E1880E23
:10168000911C5601A7E0AA0EB11C11E084E0482E7F
:1016900097E0392E3601B2E16B0E711C23E0222E49
:1016A00032E0532E89819A81892B09F40FC1F6010A
:1016B00080A1823061F128F4882349F0813079F0EB
:1016C000F1CF833041F1843009F44BC0EBCF548229
:1016D00085819681908787835286518610A3AE01BB
:1016E0004F5F5F4FBE016D5F7F4FC5010E944A2271
:1016F000882309F4EBC0D6011596ED91FC9116975D
:10170000808191968C939197818192968C93F6012A
:101710007682658220A2D60192968C91843081F0E7
:1017200018F4823079F014C0853081F0813281F470
:10173000D60191968C919197825014968C9308C003
:10174000F60113A2D60114963C9202C0F6018483DE
:10175000F60185819681908787838481828781873E
:1017600040A2D60192968C918430B1F0853009F474
:1017700042C0823009F06EC0AE014F5F5F4FBE01C4
:101780006D5F7F4FC5010E944A22882309F49EC0E5
:10179000F601858984A392C0AE014F5F5F4FBE0101
:1017A0006D5F7F4FC5010E944A22882309F48EC0D5
:1017B000D60155968C915597833009F07FC0569687
:1017C0008C915697813009F079C098969C919897A2
:1017D00057968C91992321F0882309F46FC003C098
:1017E000813009F06BC0F60113A3928996A3938907
:1017F00097A385A363C0AE014F5F5F4FBE016D5FCE
:101800007F4FC5010E944A22882309F45FC0D60198
:1018100093968C919397882309F450C012968D91DA
:101820009C911397009709F449C0DC01ED91FC915C
:101830000190F081E02D7401D60195960C91959759
:1018400097962C91979796964C91969794966C9123
:10185000099534C0F6018585882319F0813039F067
:1018600028C081A190E002979787868715872981F4
:101870003A818B819C81782F692FF60146855785A7
:101880004115510581F001962115310529F41A827F
:1018900019827B836C830DC041505109578746875D
:1018A00021503109E8CF3A8329839C838B83F60149
:1018B0001586F60186859785892B41F4D601169603
:1018C0009C928E92159790961C92ECCE2496E2E113
:1018D0000C944331A2E1B0E0E0E7FCE00C9432313B
:1018E000DC0157962C91222381F07C010E949128E3
:1018F000F7010389148925893689DC01CB01801B16
:10190000910BA20BB30BB7FF02C0D12C39C083855A
:1019100090E09A8B898B8E010F5F1F4F9E012F5E87
:101920003F4F42856681848195810E94E522D82EB1
:10193000811118C029893A892330310598F0D701DF
:101940001D968D919C911E97009761F0DC01ED91A1
:10195000FC910190F081E02D8E010F5F1F4F40E060
:10196000B70109950E949128F701208DDC01CB0178
:10197000820F911DA11DB11D838B948BA58BB68BFE
:101980008D2D6296E7E00C944E31A5E8B0E0EBECCB
:10199000FCE00C942731DC0116963C9131111AC2FF
:1019A000E22EC42ED62E3C01FC0124803580108E00
:1019B000D101ED91FC910190F081E02D60E0C10139
:1019C00009952C01009711F486ED09C2FC010081F4
:1019D00011810115110509F4FFC19301295F3F4FE2
:1019E000C258DF4F39832883CE57D04031832083BC
:1019F000E4829E0126593F4F48E050E060E0D30169
:101A000014968D919C9115970E94DB24ED968FAFD3
:101A1000ED978111D0C1AB96FFACAB97F20111836A
:101A20000083D101ED91FC910280F381E02D2C2DFA
:101A300040E06D2DC1010995F3018683882309F4E7
:101A4000CDC1E2969FADE2979087682F8481958102
:101A50000E94AB24ED968FAFED97D101ED91FC91F3
:101A6000D20114961C92882359F00480F581E02D50
:101A7000D30116966C91C1010995F3011682A6C196
:101A80000190F081E02DD30116966C91C10109956A
:101A9000009709F499CF4F2D433108F042E1FC0142
:101AA000E482442389F050E09E0126593F4FD30140
:101AB00016966C91169714968D919C9115970E948D
:101AC000DB24ED968FAFED97ED96BFADED97EE96DB
:101AD000BFAFEE97B11172C1EC96EFADEC97CD5759
:101AE000DF4FE883C358D040F12C2E01F1E44F0EB4
:101AF000511C93012E5F3F4FCC57DF4F3983288312
:101B0000C458D040120130E1230E311CCD57DF4FB5
:101B10008881C358D040F81609F47EC0EDE0F1E0AA
:101B2000D2011196FC93EE93CC57DF4F2881398177
:101B3000C458D04013963C932E9312971D961C9236
:101B40001D971F961C921E921E9790961C9290971E
:101B500091961C92919792961C92929798961C92AD
:101B6000989716963C922E92159718963C922E9224
:101B7000179714968C9114971A968C931A97199616
:101B80008C9319971C963C922E921B97D301169614
:101B9000BC91C058DF4FB883C058D040F3010480D7
:101BA000F581E02DCF57DF4FF983E883C158D0404E
:101BB0008E010F5F1F4F2F2D49E050E06B2FCF019B
:101BC0000E94FF24811121C0AB80BC805F924F92A4
:101BD0001F930F9360E4862E912CC12CD12C72E0C0
:101BE000E72E0F2D26E040E8C058DF4F6881C0582F
:101BF000D040CF57DF4F88819981C158D0400E9493
:101C000009230F900F900F900F90D30152968C9153
:101C1000823011F0F3947ACFF3011289123029F057
:101C200081EDED968FAFED97C9C0068184819581D6
:101C3000C258DF4FE881F981CE57D040EF2B89F0B1
:101C4000602F0E945126FC01892B81F00283C2582B
:101C5000DF4F28813981CE57D040318320831383D1
:101C600009C038EDEE963FAFEE9704C086EDEE96D4
:101C70008FAFEE97EE969FADEE97ED969FAFED97F7
:101C800068EE73E080E090E00E943A2A1F921F9273
:101C90001F921F92812C912CA12CB12CC12CD12CE4
:101CA000E12CD3011F960C911F9729E040E0169676
:101CB0006C91169714968D919C9115970E9409230B
:101CC000ED968FAFED970F900F900F900F908111C1
:101CD00075C068EE73E080E090E00E943A2A1F929F
:101CE0001F921F921F9200E02BE041E2F3016681F8
:101CF000848195810E940923ED968FAFED970F9017
:101D00000F900F900F90811159C01F921F921F9238
:101D10001F922AE041E2D30116966C911697149611
:101D20008D919C9115970E940923ED968FAFED97A9
:101D3000FE01EF5BFF4F83E191E091838083FF938E
:101D4000EF93CE0101969F938F9330E4832E912CD5
:101D500040E8A42EB12C52E2E52E26E041E8F30142
:101D60006681848195810E94092380E2ED968FAF80
:101D7000ED970FB6F894DEBF0FBECDBFED968FADD9
:101D8000ED97882399F090E095958795ED968FAF24
:101D9000ED97BE0164587F4FC3010E947F2469E123
:101DA00070E080E090E00E943A2AE8CF91E0D30111
:101DB00057969C9314C0F20111830083D301ED91D7
:101DC000FC910480F581E02DC3010995ED968FAD5E
:101DD000ED9705C089ED03C087ED01C084EDCB57B9
:101DE000DF4FE2E10C944331A7E1B0E0EAEFFEE01F
:101DF0000C9436314B8B5C8B6D8B7E8B8F8B611192
:101E00001092220486E09E01235F3F4FD901E82F04
:101E10001D92EA95E9F795E0FE017396D9010190CC
:101E20000D929A95E1F79C894E895F897B897D8720
:101E30009E876F87598B488BF901DE0117960190B9
:101E40000D928A95E1F7CE0107960E94BC1A811186
:101E50003EC086E0FE013796DE01119601900D929C
:101E60008A95E1F7FF81E8856A857B8561157105B3
:101E700031F0EF3F31F481E0FF3F19F403C081E01E
:101E800001C080E080FD23C02091640230E0C901E0
:101E90000196877099274091950250E08417950725
:101EA00079F1F983EA837D836C8396E0929FD00178
:101EB000939FB00D1124AB59BD4FFE013196019097
:101EC0000D929A95E1F7809364020E94D11916E071
:101ED00080919502909164028917F9F0189FC001D2
:101EE00011248B599D4F0E94BC1A8823B1F0809118
:101EF000950290E001968770992780939502E8CF2C
:101F00000E940A1D1092640210929502EEE5F2E022
:101F100086E0DF011D928A95E9F76796E3E00C946D
:101F200052310E940A1D2FEF84E39CE02150804033
:101F30009040E1F700C000009AE088E10FB6F89405
:101F4000A895809360000FBE90936000FFCF2E98FD
:101F500008952E9A0895A1E0B0E0E1EBFFE00C9423
:101F60003731898380916C03882339F0BE016F5F1C
:101F70007F4F85E593E00E947F248091530388235F
:101F800039F0BE016F5F7F4F8CE393E00E947F24A6
:101F900080913A03882339F0BE016F5F7F4F83E25F
:101FA00093E00E947F2480912103882339F0BE01B1
:101FB0006F5F7F4F8AE093E00E947F242196E2E0EA
:101FC0000C945331482F80E1489F90011124205EEA
:101FD00031092830310538F49091B601992319F070
:101FE000892F90E002C080E090E0E8EBF1E061E052
:101FF00070E02191243070F0322F32953F704313FE
:1020000009C02F70DB0102C0AA0FBB1F2A95E2F79F
:102010008A2B9B2BB1E0EE3BFB0759F70895A0E01C
:10202000B0E0E5E1F0E10C9431316091080370918A
:102030000903E091B401F091B5014091FC02509187
:10204000FD022091F0023091F1028091E402909122
:10205000E5026E177F07B1F4E091B201F091B30190
:102060004E175F0779F4E091B001F091B1012E179E
:102070003F0741F4E091AE01F091AF018E179F0749
:1020800009F461C07093B5016093B4015093B3013A
:102090004093B2013093B1012093B0019093AF010E
:1020A0008093AE01E6EBF1E088E0DF011D928A95B6
:1020B000E9F7209100033091010340910203509110
:1020C00003036091040370910503809106039091CE
:1020D00007030E94F70A2091F4023091F502409123
:1020E000F6025091F7026091F8027091F902809126
:1020F000FA029091FB020E94F70A2091E8023091C7
:10210000E9024091EA025091EB026091EC02709179
:10211000ED028091EE029091EF020E94F70A209169
:10212000DC023091DD024091DE025091DF026091CD
:10213000E0027091E1028091E2029091E3020E943C
:10214000F70AD1E001C0D0E00E942C298C011D9932
:102150000DC088EC0E94092A85FF04C00E947925E1
:1021600060E201C060E088EC0E94F5298091CA021B
:10217000813039F040F0823079F0833039F5C1E0B8
:102180000CC083E106C08091D902807F8031F1F0DC
:1021900081E18093D9021AC0C0E08091D902807F8A
:1021A0008031A9F40E949128DC01CB0188539F4F14
:1021B000AF4FBF4F8093A9019093AA01A093AB01A9
:1021C000B093AC0180E28093D90201C0C0E086EEFA
:1021D000E82E83E0F82E6701F601819191916F015D
:1021E000009739F0DC01ED91FC910680F781E02D3C
:1021F0000995B6E0CB16B4E0DB0671F78091D90201
:10220000803409F444C050F4803231F18033C9F194
:10221000813109F088C0109206040AC0813509F4A2
:102220005DC0803809F46FC0803509F07CC03EC0C5
:10223000F701819191917F01009739F0DC01ED91D7
:10224000FC910480F581E02D0995B6E0EB16B4E031
:10225000FB0671F782E165C00E949128C090A90138
:10226000D090AA01E090AB01F090AC01DC01CB0171
:102270008C199D09AE09BF09B7FD55C080E3809355
:10228000D90261E088EE0E94F52980E44AC088EE18
:102290000E94092A80FD47C088ED0E94092A682F04
:1022A000686088ED0E94F52980E53BC088EC0E94BB
:1022B000092A86FF38C081E58093D9020E949128BF
:1022C000DC01CB014496A11DB11D8093A90190931F
:1022D000AA01A093AB01B093AC0125C00E94912844
:1022E000C090A901D090AA01E090AB01F090AC01A0
:1022F000DC01CB018C199D09AE09BF09B7FD13C0E4
:1023000080E88093D9022C2F40E060E080E993E0E0
:102310000E940F2C882321F0823D29F080EA01C021
:1023200080E98093D902C8010E9482288091D90255
:102330009091AD01981741F08093AD01803921F45F
:102340000E94C5290E94AB0F8D2FCDB7DEB7E8E004
:102350000C944D318091CD0187FF11C08091E80030
:1023600082FD05C08091CB018111F8CF11C0809111
:10237000E8008B770BC08091CB01882349F08091D6
:10238000E80080FFF8CF8091E8008E778093E80026
:102390000895982F973068F59093E900981739F0D1
:1023A0007091EC002091ED005091F00003C0242FBB
:1023B000762F50E021FD02C09F5FECCF3091EB0003
:1023C0003E7F3093EB003091ED003D7F3093ED0088
:1023D0003091EB0031603093EB007093EC00209370
:1023E000ED005093F0002091EE0027FDE5CF80E056
:1023F00008958F708093E90081E008952091D301C2
:102400003091D4012617370748F06115710539F46A
:102410002091E8002E772093E80001C0B901FC016B
:1024200020E06115710579F18091CB018823F1F1EC
:102430008530F1F18091E80083FD3CC08091E80097
:1024400082FD2EC08091E80080FFEBCF2091F30049
:102450008091F20090E0922B6115710551F0883067
:10246000910538F421912093F10061507109019692
:10247000F3CF21E0089709F020E08091E8008E7703
:102480008093E800CECF2111CFCF0AC08091CB013D
:10249000882361F0853061F08091E80083FD0AC0F7
:1024A0008091E80082FFF2CF80E0089582E00895F5
:1024B00083E0089581E0089543E050E0BC0182E0AC
:1024C0000E941E28089546E050E0BC0182E00E9470
:1024D0001E280895CF93DF93EC0148E050E0BC0143
:1024E00081E00E941E2888E0FE01A1ECB1E001908D
:1024F0000D928A95E1F7DF91CF9108958F929F9287
:10250000AF92BF92CF92DF92EF920F93C42ED12C55
:102510001F921F921F921F92812C912CA12CB12CE3
:10252000E12C062F23E043E2FC0162858281938146
:102530000E9409230F900F900F900F900F91EF9032
:10254000DF90CF90BF90AF909F908F900895CF92E3
:10255000DF92EF92FF920F931F93CF938C01C62FC0
:102560007A01FA0180819181A281B3818130F3E007
:102570009F07F1E0AF07B105E1F060F48115E1E0FC
:102580009E07AE07B10569F181309140A140B105C8
:1025900081F08DC0833021E0920720E1A207B105D0
:1025A00009F466C083309340A041B10509F460C0CE
:1025B0007EC08091D50181117AC04C2F61E1C801A4
:1025C0000E9425254C2F60E1C8010E9425254C2F33
:1025D00064E0C8010E947E1281E08093D50181EB06
:1025E00067C0462F61E1C8010E9425254C2F60E19C
:1025F000C8010E9425251092D501D8011A968C9108
:102600001A978770C770880F880F880FC82B09F436
:102610004EC01296ED90FC9013976701B6E5CB0E75
:10262000D11C00E010E0F601819191916F010097BB
:10263000C9F0DC01ED91FC910084F185E02D099554
:10264000C81310C0F801BB96EE0FFF1FEE0DFF1D63
:1026500080819181DC01ED91FC910480F581E02D78
:10266000099525C00F5F1F4F00311105E1F61FC00E
:102670004C2F64E1C8010E9425254C2F60E1C80160
:102680000E94252564E170E080E090E00E943A2AF3
:10269000F8016285D70111962C91269521706770FB
:1026A0004C2F828193810E940F2C1092D50180E0E3
:1026B000CF911F910F91FF90EF90DF90CF900895F1
:1026C000AAE2B0E0E6E6F3E10C943631EDECF1E09D
:1026D00085ED91E02091F10021938E179F07D1F7AE
:1026E0008091CE01833009F461C030F4813071F003
:1026F000823009F49BC0B2C08A3009F487C08B30A5
:1027000009F46CC0893009F0A9C020C08091CD01C6
:10271000813A09F0A3C08091E800877F8093E800A8
:102720008091D1019091D201892B21F468E081EC54
:1027300091E003C060E080E090E070E00E94FE1154
:102740008091E8008B778093E80088C08091CD016C
:10275000813209F083C08091D1019091D20102971A
:1027600008F07CC08091E800877F8093E80080912A
:10277000E80082FD05C08091CB018111F8CF6EC0C9
:102780002091F3008091F20090E0922B029731F4B7
:102790008091F100813011F0863021F48091F100B8
:1027A0008093C0018091E8008B7754C08091CD0167
:1027B000813A09F053C08091D1019091D201892BC7
:1027C00009F04CC08091E800877F8093E8008091F9
:1027D000E80080FFFCCF8091000137C08091CD01DF
:1027E0008132E1F58091D1019091D201892BB1F52F
:1027F0008091E800877F8093E8000E94AA11809171
:10280000CF01809300010E940A1D28C08091CD0154
:10281000813221F58091E800877F8093E8000E9453
:10282000AA118091D0018093BF0118C08091CD0181
:10283000813AA1F48091E800877F8093E80080913D
:10284000E80080FFFCCF8091BF018093F100809170
:10285000E8008E778093E8000E94AA118091E8003A
:1028600083FFCEC18091CD019091CE01492F50E0E0
:102870004A30510508F0C4C1FA01E557FF4F0C94E6
:102880002131803821F0823809F0BAC108C0809126
:10289000C9019091CA01992389F082600FC080918B
:1028A000D1018F70873008F0ABC18093E90080912F
:1028B000EB0085FB882780F91092E9009091E800F1
:1028C000977F9093E8008093F1001092F10065C12A
:1028D000282F2D7F09F094C1882319F0823061F0F0
:1028E0008FC18091CF01813009F08AC1933009F006
:1028F00080E08093CA012EC08091CF0181112AC04F
:102900008091D1018F702FEF280F263008F078C109
:102910008093E9002091EB0020FF1CC0933021F44C
:102920008091EB00806214C09091EB0090619093D5
:10293000EB0021E030E0A90102C0440F551F8A9549
:10294000E2F74093EA001092EA008091EB00886081
:102950008093EB001092E9008091E800877F20C10E
:1029600081114EC11091CF011F778091E3008078D3
:10297000812B8093E3008091E800877F8093E800BB
:102980000E94AA118091E80080FFFCCF8091E300B3
:1029900080688093E300111102C082E001C083E0EF
:1029A0008093CB012DC18058823008F029C18091DD
:1029B000CF019091D0018C3D53E0950779F583E0EC
:1029C0008A838AE289834FB7F894DE01139620E068
:1029D0003EE051E2E32FF0E050935700E49120FFF6
:1029E00003C0E295EF703F5FEF708E2F90E0EA300A
:1029F00010F0C79601C0C0968D939D932F5F243130
:102A000049F74FBF8091E800877F8093E8006AE232
:102A100070E0CE0101960E94FE11AEC04091D1013E
:102A20005091D201292F332723303105A9F068F4C2
:102A30002130310509F4F3C02230310509F0E0C03E
:102A40008BE390E0E9EAF2E044C02132310521F164
:102A50002232310571F1D4C0992781309105A1F05E
:102A600058F0029709F0CCC0E6EFF2E0E4918E2F27
:102A700090E0E6EFF2E02AC0ECE2F3E0E4918E2F82
:102A800090E0ECE2F3E022C0E2E2F3E0E4918E2F8A
:102A900090E0E2E2F3E01AC04115510509F4C4C028
:102AA0004130510509F0ACC089E090E0E4EDF2E07E
:102AB00010C04115510509F4BCC04130510509F061
:102AC0009FC08BE790E0EEEEF1E003C0009709F4C1
:102AD00097C02091E800277F2093E8002091D30140
:102AE0003091D4018217930708F49C0140E021152E
:102AF000310589F18091CB01882309F43DC08530EF
:102B0000D9F18091E80083FD37C08091E80082FD13
:102B10002FC08091E80080FFEACF4091F3008091C0
:102B2000F20090E0942B2115310559F08830910581
:102B300040F444914093F1003196215031090196BF
:102B4000F2CF41E0089709F040E08091E8008E77ED
:102B50008093E800CCCF4111CDCF0AC08091CB014A
:102B6000882351F0853041F08091E80083FD04C056
:102B70008091E80082FFF2CF8091E8008B7780930C
:102B8000E8003EC08038E1F58091E800877F8093BF
:102B9000E8008091CC018093F1008091E8008E776D
:102BA0008093E8000E94AA112BC0811129C0809156
:102BB000CF019091D0019927029714F58091E800F8
:102BC000877F8093E8001091CF011093CC010E9481
:102BD000AA11111106C08091E30087FD02C081E0B7
:102BE00001C084E08093CB0142E061EC81E00E946F
:102BF000C91142E261EC82E00E94C9118091CB01CF
:102C00008091E80083FF1AC08091E800877F80935D
:102C1000E8008091EB0080628093EB000FC082E1BE
:102C200090E0E4EEF2E055CF89E090E0EBEBF2E0EB
:102C300050CF80E490E0E9E6F2E04BCFAA96E3E0E3
:102C40000C9452311F920F920FB60F9211242F93B2
:102C50003F934F935F936F937F938F939F93AF9324
:102C6000BF93CF93DF93EF93FF93C091E900CF70B1
:102C70008091EC00D82FD17080FDD0E81092E9004F
:102C80008091F000877F8093F00078940E94601319
:102C90001092E9008091F00088608093F000CD2BC5
:102CA000CF70C093E900FF91EF91DF91CF91BF9179
:102CB000AF919F918F917F916F915F914F913F91D4
:102CC0002F910F900FBE0F901F901895E8EDF0E038
:102CD00080818E7F80831092E2001092DA00109241
:102CE000E100A0EEB0E08C9181608C9380818F77C1
:102CF000808319BCA7EDB0E08C918E7F8C9380818E
:102D00008F7E80831092BE010895A0E0B0E0EBE8D2
:102D1000F6E10C943131C8EDD0E088818F7E888354
:102D2000E7EDF0E080818160808384E082BF81E014
:102D30008093BE0188818E7F888302EE10E0F801C7
:102D400010821092DA0081EEC82ED12CF60110828A
:102D500088818F77888388818068888388818F7D48
:102D6000888319BC1092CB011092CC011092CA0139
:102D70001092C90190EEE92EF12CF70180818B7F32
:102D8000808388818160888342E060E080E00E94E7
:102D9000C911F60180818E7F8083F8018081816076
:102DA0008083808188608083F70180818E7F80832B
:102DB000888180618883CDB7DEB7E8E00C944D311F
:102DC0001F920F920FB60F9211242F933F934F93A0
:102DD0005F936F937F938F939F93AF93BF93EF9383
:102DE000FF938091E10082FF09C08091E20082FFA1
:102DF00005C08091E1008B7F8093E1008091DA0033
:102E000080FF2AC08091D80080FF26C08091DA0020
:102E10008E7F8093DA008091D90080FF18C080E116
:102E200089BD82E189BD09B400FEFDCF81E08093B8
:102E3000CB018091BE0181110FC00E9466160E94D5
:102E400085168091E20084608093E20005C019BC81
:102E50001092CB011092BE018091E10080FF17C05B
:102E60008091E20080FF13C08091E2008E7F80930A
:102E7000E2008091E20080618093E2008091D800BE
:102E800080628093D80019BC85E08093CB0180914B
:102E9000E10084FF30C08091E20084FF2CC080E11B
:102EA00089BD82E189BD09B400FEFDCF8091D800C3
:102EB0008F7D8093D8008091E1008F7E8093E10028
:102EC0008091E2008F7E8093E2008091E200816039
:102ED0008093E2008091CC01882311F084E007C048
:102EE0008091E30087FD02C081E001C083E0809310
:102EF000CB018091CB018091E10083FF27C08091BD
:102F0000E20083FF23C08091E100877F8093E1008E
:102F100082E08093CB011092CC018091E1008E7F02
:102F20008093E1008091E2008E7F8093E2008091A7
:102F3000E20080618093E20042E060E080E00E9475
:102F4000C9118091F00088608093F000FF91EF91AB
:102F5000BF91AF919F918F917F916F915F914F91B1
:102F60003F912F910F900FBE0F901F9018952091B9
:102F7000E4003091E50095E64091EC00842F8170EB
:102F800040FF23C08091E80080FD1DC08091CB01EF
:102F9000882399F0853099F08091EB0085FD11C070
:102FA0004091E4005091E5002417350729F3915032
:102FB00011F09A01E1CF84E0089582E0089583E062
:102FC000089581E0089580E008954091E80042FF6F
:102FD000DDCF0895CF93DF938238910569F1B0F486
:102FE0008133910509F477C048F48932910509F4D9
:102FF00069C08A32910509F473C092C08533910586
:1030000009F45BC089339105B9F08AC0833E91050C
:1030100091F138F4803E9105D1F0823E910531F175
:103020007FC0863E9105D9F1873E9105E9F1843E46
:10303000910509F075C028C02091A40220FD5BC055
:1030400021FD59C02091A50223FD61C069C0809176
:10305000A40280FD4AC08091A50280FF4CC08091EF
:10306000A40284FD50C183EE90E04FC18091A40280
:1030700082FF3EC0F4CF8091A40282FD39C08091CE
:10308000A50280FD38C0EBCF8091A50281FF39C039
:103090008091A40284FD37C187EE90E036C1809113
:1030A000A40283FF2BC0F4CF8091A40283FD26C02D
:1030B0008091A50281FD25C0EBCF8091A40285FD02
:1030C00026C022C08091A40285FD1EC08091A50269
:1030D00083FF1DC00AC08091A40286FD1BC01DC0D5
:1030E0008091A40286FD19C015C089E390E00DC14E
:1030F00082EE90E00AC180EE90E007C186EE90E09B
:1031000004C184EE90E001C185E390E0FEC089E255
:1031100090E0FBC08AE290E0F8C081E390E0F5C067
:10312000EC01811530E5930708F053C0811560E488
:10313000960720F0CE019F70906AE7C0803E91050F
:1031400088F58D3C910518F0CE019065DEC0883A77
:103150009105C0F4853A910550F08C2F855AC82FFF
:10316000D0E0CB5EDE4F888190E09064CEC08130AD
:10317000910509F4C5C008F4C6C0049708F4C3C09B
:10318000CE01C3C0813C910508F0BDC08C2F885A88
:10319000C82FD0E0CC0FDD1FC85EDE4F888199813B
:1031A0009464B3C08115904258F08D2F8F710E94A6
:1031B0008520282F2F71CE0199279062922BA5C0D0
:1031C000C11581E0D807E0F6C83ED10508F09BC0E4
:1031D000D7CFC03692E5D90708F053C0C03422E5F6
:1031E000D207B8F08C2F8F718695869570E2879FF5
:1031F000A00111248C2F837021E030E0B90102C0BE
:10320000660F771F8A95E2F7CB019C68842B952B7C
:103210007CC0C03232E5D30740F08C2F8F7190E034
:10322000982F8827816F906A70C0C11562E5D60714
:10323000B0F08C2F8695869520E2829FA001112404
:103240008C2F837021E030E0B90102C0660F771F38
:103250008A95E2F7CB01842B952B9D6856C08C2F65
:103260008F710E94852095E0D695C7959A95E1F7D4
:10327000CF70D0E0DC2FCC27D0699E01282BC9016C
:1032800044C0C03A72E5D70708F58C2F8F71C0385B
:1032900092E5D907A8F48695869570E2879F9001FC
:1032A00011248C2F837041E050E0BA0102C0660FF8
:1032B000771F8A95E2F7CB019A68822B932B25C062
:1032C00090E0982F8827846F906A1FC0C03C22E549
:1032D000D20750F48C2F8F710E9485208F7190E05F
:1032E000982F8827906211C0C03E32E5D30758F46A
:1032F000CE018F719927982F8827806F906A05C01B
:1033000081E090E002C080E090E0DF91CF910895ED
:1033100080919F02811110929F0208958095909153
:103320001F04892380931F04089590911F048091A6
:103330002204982B9093D60180919F02882389F0D4
:10334000892B8093D601E8EDF1E097E080E0915081
:1033500029F021912223D9F38F5FF9CF81110E94A7
:10336000881948E050E067E972E086ED91E00E943C
:103370007231892BA9F088E0E6EDF1E0A7E9B2E02F
:1033800001900D928A95E1F7E0910904F0910A0409
:10339000309731F00280F381E02D86ED91E00995C0
:1033A00008958091950290916402891719F08F5FBA
:1033B0008770FBCF08950F931F93CF93DF93809176
:1033C000630282958F7009F05AC080916002882351
:1033D00009F455C0809195021091640260915E02DB
:1033E00070915F02C0916102D091620291E06F3FE3
:1033F00009F090E0292F06E0811709F440C02097DA
:1034000021F07F3F21F030E003C031E001C0322FD6
:1034100090E030FD31C0089FF001099FF00D1124AC
:10342000DF01AB59BD4F11963C911197371324C062
:103430003C91361321C012963C91129731111CC059
:1034400013964D915C9114974C1B5D0B483C5105B4
:1034500098F4809163028F70806180936302E659D3
:10346000FD4F80818F70806180838EE592E00E94A5
:10347000C3040E94D11903C001968770BDCFDF91AC
:10348000CF911F910F910895A0E0B0E0EAE4FAE136
:103490000C9430317C010091A2021091A302809122
:1034A000A0029091A102082B192BCFE0D0E0CC24F0
:1034B000C394D12CC6010C2E02C0880F991F0A9408
:1034C000E2F780239123892B21F4219798F7B12CDF
:1034D00009C0BC2EB7018C2F0E94C8200E94EA1799
:1034E000019799F38B2DCDB7DEB7E9E00C944C3101
:1034F000CF93DF93EC010E94441ABE010E94C820C2
:103500000E94EA17DF91CF910895CF93FC0180814B
:10351000918123813481232B31F09F3F31F491E05D
:103520008F3F19F403C091E001C090E0C92FC17032
:1035300090FD1CC0808191810E94781A92959F70A5
:10354000963079F010F4925001C09A50923088F47D
:10355000803F71F018F4883E60F40AC0843F49F45B
:1035600007C0883E28F0813F21F402C0C0E001C0BE
:10357000C1E08C2FCF910895A1E1B0E0E2ECFAE137
:103580000C942E318C0185E0F801DE011D9601902E
:103590000D928A95E1F7F801E28090915E026091C8
:1035A0005F0240916102509162024115510531F074
:1035B0006F3F31F481E09F3F19F403C081E001C007
:1035C00080E0F82FF1709F2E80FD1BC1F801308143
:1035D0002181C380D4808EE5A82E82E0B82EF090A1
:1035E0006002F601E41BF50BFF2009F4C7C08091CF
:1035F0006302E83CF10508F092C0482F407F09F0D3
:1036000051C0621311C093130FC0FE2CE1100CC007
:103610008F70806180936302C5010E94C304809112
:103620006302F80185832AC1C114D10431F02F3F10
:1036300031F481E03F3F19F403C081E001C080E034
:1036400080FD03C081E08E2502C080E090E0F82F6D
:10365000F170FF2E80FF1CC08091950240916402A2
:1036600056E0841709F4E8C090E0589FF001599F94
:10367000F00D1124EB59FD4F6181261306C06081C6
:10368000631303C06281E61203C001968770E9CF1D
:10369000FE2CEE2009F4F2C08091630281608093D9
:1036A000630249C0621306C0931304C0E11002C054
:1036B000F80186C0C8010E94851A882351F1EE20C6
:1036C00041F120916302822F82958F7090E00297E2
:1036D00074F080915E0290915F0298878F831986C3
:1036E000DB86CA862C87CE0107960E94C30486E03B
:1036F000F801AEE5B2E001900D928A95E1F70E94E3
:10370000DB190AC06217C9F0C8010E94851A81112D
:103710001EC0C8010E94C304FF24F394AFC0482F09
:10372000407F81F78EE592E00E94C30486E0F501B8
:1037300011928A95E9F7F12CA1C09313E5CFE1101E
:10374000E3CFF8018583C8010E94C30454C0EE2072
:1037500001F320916302822F82958F7090E002978F
:1037600034F280915E0290915F029A8389831B827A
:10377000DD82CC822E83CE010196B7CFE83CF105E5
:10378000D0F5FE2CEE2029F2621327C0931325C03A
:103790002091630220FD18C0822F82958F70482FE0
:1037A00050E04115510581F0F80125834F30510556
:1037B00041F08F5F982F9295907F822F8F70892B89
:1037C0008583C8010E94C30486E0F801AEE5B2E03B
:1037D00001900D928A95E1F751C0C8010E94851AA7
:1037E000811185CF80916302816080936302C8015B
:1037F0000E94C30443C086E0F50111928A95E9F75F
:103800003DC0EE2009F485CFC8010E94851AF82E2C
:10381000882309F47ECF86E0F801AEE5B2E001909E
:103820000D928A95E1F780915E0290915F020E946D
:10383000781A0E94DB1922C03D872E878D859E85D0
:103840000E94781A292F22952F70223028F49F7019
:1038500039F0811105C00BC0243028F49F7049F461
:10386000805E883020F0C8010E94C3049F2CF92C90
:1038700005C0F8019581907F99F7F9CF8F2D61965A
:10388000EBE00C944A31903178F5803168F5E82FFF
:10389000F0E080E1989FE00DF11D11249E2F9770BC
:1038A00083E0F695E7958A95E1F7EE0FFF1FEE0F9F
:1038B000FF1FE252FE4F40E050E080E0219130E0F7
:1038C000092E02C0369527950A94E2F72170332716
:1038D000042E01C0220F0A94EAF7822B4F5F5F4F3C
:1038E0004430510559F7089580E00895903188F5E6
:1038F000803178F5E82FF0E080E1989FE00DF11D30
:1039000011248E2F877051E001C0550F8A95EAF778
:1039100083E0F695E7958A95E1F7EE0FFF1FEE0F2E
:10392000FF1FE252FE4F20E030E070E04081CB010B
:10393000022E02C0969587950A94E2F781708195D0
:1039400084278523842781932F5F3F4F24303105BF
:1039500069F708959093A3028093A202089521E04D
:1039600030E002C0220F331F8A95E2F72095309590
:103970008091A2029091A302822393230E94AA1C09
:103980000895209196028095822380939602982F25
:10399000977099F430E0482F082E000C550B24172F
:1039A000350759F09091A50292FF07C0859585953E
:1039B00085950E94AF1C1092960208959091A502E1
:1039C00092FB222720F9281779F080FB92F9909337
:1039D000A5026091A4027091A50284E090E00E948B
:1039E0009F2F82E00E94C11C089521E030E002C0B8
:1039F000220F331F8A95E2F78091A2029091A302D1
:103A0000822B932B0E94AA1C08959093A10280936D
:103A1000A0020895CF9310921F04C6E0E8EDF1E0F4
:103A2000DF018C2F1D928A95E9F780E090E00E94DB
:103A3000A02980E090E00E947B29109222040E943D
:103A40009519E9E1F4E0DF011D92CA95E9F71092BA
:103A5000120410921304109214040E94132BCF919D
:103A60000895882321F00E948E190E9495190895C7
:103A7000882339F090911F04892B80931F040E94A2
:103A8000951908951F93CF93DF93182F893319F059
:103A9000C0E0D0E002C0C0E5D0E0812F0E94142F2A
:103AA000209741F08FE99FE00197F1F700C00000F7
:103AB0002197F6CF812F0E94D82EDF91CF911F91B1
:103AC000089580E00895A0E1B0E0E9E6FDE10C94FE
:103AD000293185B7806885BF85B7806885BF84B781
:103AE000877F84BF0FB6F894A895809160008861A5
:103AF00080936000109260000FBE90E080E80FB6E7
:103B0000F89480936100909361000FBE81E69DE17F
:103B10009093A7018093A6010E9466160E948516C5
:103B20008091E20084608093E20078948091CB01E0
:103B30008823A1F01091E9001F709091EC00892F6B
:103B4000817090FD80E8182B1092E9008091E800C8
:103B500083FD0E9460131F701093E90082E084BD12
:103B600093E095BD9AEF97BD80936E00269A0E94D0
:103B7000A90F219A229A2398209A80E58CBD81E092
:103B80008DBD259868E188E80E94F52960E288E704
:103B90000E94F52960E088E70E94F52900E010E026
:103BA00088E60E94092A0F5F1F4F80FD05C00F3F66
:103BB0002FEF1207A9F71BC061EC88ED0E94F529D1
:103BC00060E680ED0E94F52964E088EE0E94F52908
:103BD00088EE0E94092A82FFFBCF0E94792560E2CD
:103BE00088EC0E94F52961E080E80E94F5298EEFBB
:103BF00092E0909363038093620382EF92E090934C
:103C00004A038093490386EE92E0909331038093B8
:103C100030038AED92E0909318038093170380E0BD
:103C200090E00E947B2F873E9E4F09F45EC067EEB6
:103C30007EEF80E090E00E949F2F60E082E090E0C5
:103C40000E94812F60E083E090E00E94812F10921B
:103C5000A1021092A00260E074E184E090E00E9472
:103C60009F2F60E086E090E00E94812F6FEF87E059
:103C700090E00E94812F40E050E0BA0188E090E09F
:103C80000E94932F60E08DE090E00E94812F40E041
:103C900050E0BA0188E190E00E94932F60E087E154
:103CA00090E00E94812F40E050E0BA018CE190E06A
:103CB0000E94932F60E070E080E290E00E949F2FCE
:103CC00040E050E0BA0188E190E00E94932F40E08C
:103CD00050E0BA018FE090E00E94932F40E050E066
:103CE000BA0183E190E00E94932F82E090E00E946D
:103CF000732F8093A80284E090E00E947B2F909322
:103D0000A5028093A40283E090E00E94732F90E0CC
:103D10000E94051D81E091E090930A0480930904BC
:103D200058E1C52ED12C60E4562E01E08091CB01E4
:103D3000853009F049C030E1E32E42E1F42E809154
:103D4000CB01853009F03AC08091CB01843021F15C
:103D500080E00E94AB0F10920D040FB6F894A89566
:103D6000C09260000FBE5092600083B7817F846074
:103D700083BF83B7816083BF7894889583B78E7F34
:103D800083BF0FB6F894A8958091600088618093F6
:103D90006000109260000FBE8091CA01882309F470
:103DA000CECF0E940F1010E0812F0E94E20F892BCE
:103DB00009F08BC11F5F1031B9F7C1CF0E940A1DF6
:103DC0000E94C5290E94AB0F0E940F1029EAE22E23
:103DD00022E0F22E570110E0F501819091905F01F1
:103DE000812F0E94E20F882599251F5F103119F05D
:103DF000892B91F322C0892B01F50E942C297C018B
:103E00008091A6029091A702E816F90609F452C023
:103E10008FEF8F83888719860E942C298160782FE5
:103E20009B878A874F81588569858B850E94F40E10
:103E3000F092A702E092A6023DC010E0812F0E94FE
:103E4000E20F3C01F7018080918088269926811439
:103E5000910441F1412CAA24A394B12CC5018821DD
:103E60009921892BB1F04C861D8721E0C50186215F
:103E70009721892B09F420E02E870E942C2981604C
:103E8000782F988B8F874C855D856E8588890E94F9
:103E9000F40E4394AA0CBB1CF0E14F12DFCFF701E4
:103EA000718260821F5FF2E0EF0EF11C103131F67B
:103EB0000E94912880912304882369F00E942C2974
:103EC0002091200430912104821B930B8F3F9F4748
:103ED00010F40E94F12A86E0E9E1F4E0DE01119697
:103EE00001900D928A95E1F710921B0410921C0428
:103EF00010921D0410921E041B81111104C08C81AC
:103F0000882309F450C080911704909118040E94EE
:103F100082289C0190911204992309F4ECC0253168
:103F2000310508F440C09F3F19F09F5F9093120441
:103F3000112361F00E945F2B111614F491E001C06F
:103F40009FEF899F802D112480931B041C811123D6
:103F500061F00E945F2B111614F491E001C09FEFF5
:103F6000899F802D112480931C0430911B043323DE
:103F7000D1F020911C042223B1F045EB3403C001A1
:103F80001124992319F090931B0402C000931B0481
:103F900035EB2303C0011124992319F090931C04DD
:103FA00002C000931C041D81111104C08E8188235E
:103FB00009F450C080911504909116040E94822843
:103FC0009C0190911304992309F49AC0213531057D
:103FD00008F440C09F3F19F09F5F90931304112392
:103FE00061F00E943D2B111614F491E001C09FEF87
:103FF000899F802D112480931D041E81112361F05F
:104000000E943D2B111614F491E001C09FEF899F8F
:10401000802D112480931E0430911D043323D1F090
:1040200020911E042223B1F045EB3403C00111247A
:10403000992319F090931D0402C000931D0435EBE1
:104040002303C0011124992319F090931E0402C088
:1040500000931E0446E050E0BE016F5F7F4F89E190
:1040600094E00E947231892BA9F480911B04811184
:104070000FC080911C0481110BC080911D0481111F
:1040800007C081E090911E04911103C080E001C03F
:1040900081E080FD0E94132B86E0FE013196A9E1AC
:1040A000B4E001900D928A95E1F70E94C529182F7E
:1040B0008091C902181709F439CE1093C9020E94E1
:1040C0009128812F0E94AB0F31CEE9BCF9BC09B415
:1040D00000FEFDCF8091D8008F7D8093D800809125
:1040E000E00082608093E0008091E00081FDFCCFE1
:1040F0000E940A1D24CE2B30310508F016CF53CF75
:104100002B30310508F068CFA5CF9091A40292FF23
:104110000DC0282F2871283019F4877F846006C0CD
:10412000282F2471243011F48B7F886093FF0DC0F9
:10413000282F2871283119F4877E846106C0282F22
:104140002471243111F48B7E88612091A50220FF17
:104150000DC0382F3871383019F4877F816006C060
:10416000382F3171313011F48E7F886021FF0DC0FE
:10417000282F2871283119F4877E816106C0282FE5
:104180002171213111F48E7E886194FD877E08951E
:104190007031C8F46031B8F48330A8F4E72FF0E050
:1041A00090E1899FE00DF11D112484E0EE0FFF1FC7
:1041B0008A95E1F7E60FF11DEE0FFF1FE05DFC4F62
:1041C00085919491089580E090E00895FC0180E944
:1041D00093E0958384838EE491E0918380838CE6E1
:1041E00091E093838283138A148A158A168A178A28
:1041F000178288E080878CE381871286138684E0AB
:10420000848781E0828B118A178616861586A6EE32
:10421000B3E080E090E02D913D91232B41F4880F95
:10422000991FDC01AA51BC4FED93FC9308950196B0
:104230008031910581F708951092CE021092CD023F
:1042400088EE93E0A0E0B0E08093CF029093D0029C
:10425000A093D102B093D20282E791E09093CC0276
:104260008093CB028AE991E090939103809390032D
:10427000109295031092980381E080939903109215
:104280009A0382E993E090939703809396031092A8
:10429000920388E0809393038CE380939403E0E996
:1042A000F3E021E082E993E015862687178694875C
:1042B0008387359633E0EB3DF307B1F710920604A0
:1042C00081E18093D90284E891E090938003809308
:1042D0007F0380E993E0909382038093810310929F
:1042E000890310928A0310928B0310928C03109210
:1042F0008D0310928E0310928F031092830388E037
:10430000809384039CE39093850391E090938603CC
:104310008093870384E080938803A6EEB3E0FD01D9
:1043200080E090E021913191232B51F4880F991F67
:10433000FC01EA51FC4F8FE793E09183808304C036
:1043400001968031910571F784E891E090936F03B5
:1043500080936E0380E993E09093710380937003E0
:10436000109278031092790310927A0310927B03D3
:1043700010927C0310927D0310927E0310927203C0
:1043800088E0809373039CE39093740391E090938F
:1043900075038093760384E08093770380E090E058
:1043A0002D913D91232B51F4880F991FFC01EA5167
:1043B000FC4F8EE693E09183808304C001968031A8
:1043C000910571F785E593E00E94E6208CE393E088
:1043D0000E94E62083E293E00E94E6208AE093E0D8
:1043E0000E94E62084EA91E09093FF028093FE020F
:1043F0009093F3028093F2029093E7028093E60297
:104400009093DB028093DA020895A0E0B0E0EBE045
:10441000F2E20C943231EC01E62EF12C85E0689F3B
:10442000B0011124FE01E60FF71F8085182F1770C9
:1044300086FF17C001E085E0D82EFE01D09EE00D7A
:10444000F11D1124808586958695869587701817AD
:10445000E1F00F5F003189F78D81811302C01150A7
:104460001D8385E08E9DF0018F9DF00D1124EC0FD2
:10447000FD1F108681E0818712862296D783C6832E
:10448000CDB7DEB7E7E00C944E31602FCE010E942D
:104490000522D3CFCF93DF93FC01EB018081918183
:1044A000892B21F18281882319F1DA012D913C9128
:1044B000232BE1F0A881B9819C91A381B0E0A81BD6
:1044C000B10920813181A20FB31F9C938281815059
:1044D0008283DA018D919C91119701978D939C9322
:1044E00088819981019699838883DCCF80E003C01D
:1044F0008381828381E0DF91CF910895A0E0B0E0D5
:10450000E4E8F2E20C942B31EC01B62EA42E7901F2
:104510000E9451266C01009709F44DC0DC01ED9119
:10452000FC911197309709F448C013969C9180E054
:10453000981731F02081A21629F033968F5FF8CFBB
:10454000E0E0F0E0D701ED93FC933097C1F1828178
:104550008695869590E08031910514F08FE090E08B
:1045600041E050E060E070E03A014B0104C0660CAD
:10457000771C881C991C8A95D2F7D401C301019736
:10458000D8018D939C936B2D80EE0E94F52988EDC8
:104590000E94092AF6019481992331F0CA58DF4F0D
:1045A00068816260682B02C0682F697F88ED0E9475
:1045B000F52980E005C086ED03C087ED01C08BEDD5
:1045C000CDB7DEB7EEE00C944731A4E0B0E0EBEEFF
:1045D000F2E20C942F317C01690158011C821B828C
:1045E0001A8219828E010F5F1F4F9E012D5F3F4F70
:1045F0000E947E22811109C049815A816B817C8190
:1046000085019601C7010E94602D2496EAE00C9472
:104610004B31A7E1B0E0EFE0F3E20C9427313C012D
:10462000342E222E402E5E2CECA4FDA4188A1F8668
:104630001E861D868E01035F1F4F9E01215F3F4F27
:1046400040E00E947E22811156C139822A824B822B
:104650005C82DE82CD82B886AF82AE014F5F5F4F53
:1046600068E080E20E94D2292D853E8540E060E12D
:10467000C3010E940B2D582E8111F3C0232D2078E9
:10468000322EE114F10409F4DBC00F8518892223CE
:1046900009F452C0D80112968C911297826012963A
:1046A0008C93650144244394C114D10409F4CDC012
:1046B0009C868B864D855E856F85788987019E01F6
:1046C000255F3F4FC3010E94602D582EB6E08B132B
:1046D0000FC00F85188988EF0E94092A85FB88275B
:1046E00080F98425F801928180FB91F99283DCCFD7
:1046F0008111B7C02EA53FA521153105A1F0D90123
:10470000ED91FC9111970190F081E02DC5018C197C
:104710009D099A8789876B857C859E01275F3F4F1E
:10472000A701CD0109958B859C85C81AD90A8815E2
:10473000990508F0B9CF84C0F80182818160828335
:1047400021808FEF820D803408F089C02D853E8551
:104750003A8B298B0E9491289B01AC0128573C4E33
:104760004F4F5F4F2B8B3C8B4D8B5E8BD80112963E
:104770008C9180FD02C060E401C060E888EE0E9478
:10478000F529312C8114910409F44CC05101821493
:10479000930408F45401AF8AA7016A2D80E10E94B6
:1047A000D2296A2D88E30E94F529F80160816062B0
:1047B00080EF0E94F52988EC0E94092A87FFFBCF31
:1047C00060E888EC0E94F52988EF0E94092A8F7022
:1047D000582EC12CD12C412C552009F483C00E94A5
:1047E0009128DC01CB012B893C894D895E89821B94
:1047F000930BA40BB50BB7FF75C0F6E05F1699F1EC
:104800002EE0521609F469C034E053120BC03FEF9A
:10481000C31AD30A49895A8941155105E1F14C154A
:104820005D05C9F588EF0E94092A85FB882780F974
:10483000F801928180FB90F99283511012C057C009
:104840002D853E85311005C054C051100AC02D85FC
:104850003E8560EA40E0C3010E940B2D4CC08AED0A
:104860004AC0852D48C088EF0E94092A85FB882709
:1048700080F991E08927D80112969C91129780FBCC
:1048800090F912969C9390FD02C060E401C060E82C
:1048900088EE0E94F52960E088E30E94F529F7017F
:1048A000608180E10E94F5296F8988E30E94F529E3
:1048B000D8016C91606280EF0E94F52988EC0E941B
:1048C000092A87FFFBCF60E888EC0E94F52988EF72
:1048D0000E94092A8F70582E7FCF439453E04512CF
:1048E000DACFA0CF8A189B08EA0CFB1C4BCF2D8592
:1048F0003E8560E8AFCF6796E2E10C9443318F923A
:104900009F92AF92BF92CF92DF92EF920F931F923E
:104910001F927F936F9388248394912CAA24A3944D
:10492000B12CC12CD12C42E0E42E00E029E041E280
:10493000FC016681848195810E9409230F900F906C
:104940000F900F900F91EF90DF90CF90BF90AF90AE
:104950009F908F9008958F929F92AF92BF92CF9227
:10496000DF92EF920F93CF931F921F921F921F928D
:10497000812C912CA12CB12CC12CD12CE12C062FF7
:1049800025E040E060E00E940923C82F6CE271E05E
:1049900080E090E00E943A2A0F900F900F900F90C5
:1049A0008C2FCF910F91EF90DF90CF90BF90AF9071
:1049B0009F908F9008958F929F92AF92BF92CF92C7
:1049C000DF92EF920F931F921F923F932F934A0112
:1049D0005A01C12CD12CEE24E39400E026E040E8FB
:1049E0000E9409230F900F900F900F900F91EF905E
:1049F000DF90CF90BF90AF909F908F9008958F924F
:104A00009F92AF92BF92CF92DF92EF920F931F933C
:104A10001F921F921F930F934A015A01C12CD12C50
:104A200032E0E32E022F26E040E80E9409230F9097
:104A30000F900F900F901F910F91EF90DF90CF90FC
:104A4000BF90AF909F908F9008958F929F92AF925A
:104A5000BF92CF92DF92EF920F93C42ED12C1F9270
:104A60001F921F921F92812C912CA12CB12CE12C12
:104A7000062F21E043E2FC016285828193810E943E
:104A800009230F900F900F900F900F91EF90DF90F0
:104A9000CF90BF90AF909F908F9008958F929F92EC
:104AA000AF92BF92CF92DF92EF920F93C62ED12C8E
:104AB0001F921F925F934F9324E0822E912C34E03B
:104AC000A32EB12CE12C00E020E043EAFC0162853A
:104AD000828193810E9409230F900F900F900F9075
:104AE0000F91EF90DF90CF90BF90AF909F908F90FD
:104AF000089588EF0E94092A807C8034A1F018F480
:104B0000882301F10895803819F0803CB9F00895A8
:104B100088ED0E94092A81FD0BC069EC88ED0E9496
:104B2000F52982E00CC088ED0E94092A81FDF5CFAD
:104B30006BEC88ED0E94F52983E001C081E0809351
:104B4000CA02089561ED88ED0E94F5291092CA020B
:104B500008958091C0010895A0E0B0E0E2EBF5E295
:104B60000C9431316C01EB017B01E40EF51E00E089
:104B700010E0CE15DF0561F06991D601ED91FC9151
:104B80000190F081E02DC6010995080F191FF1CFA2
:104B9000C801CDB7DEB7E8E00C944D31CF93DF9379
:104BA000EC018A819B81DC01ED91FC910480F5810F
:104BB000E02D6A8509958A85813439F4EA81FB8183
:104BC000EA58FF4F8081846080831A861B861C868A
:104BD0001D861E861F86188A80E0DF91CF9108957A
:104BE00081E0693009F080E00895FC018285089534
:104BF000CF93DF93FC01862F8078A9F4283008F04A
:104C00004DC0442321F09581973009F447C0EF014E
:104C1000A1E0B0E09D85992341F011962596A03141
:104C2000B105C1F73BC080E039C061111CC085E00F
:104C30008A9FE0018B9FD00D1124CE0FDF1F4423EC
:104C400031F081E4888785818F5F858302C081E0B0
:104C5000888725E02A9FC0012B9F900D1124E80F23
:104C6000F91F80851BC06770660F660F660F4423AF
:104C700041F0606485818F5F85838770687F682BD2
:104C800003C02770687B622B25E02A9FC0012B9F01
:104C9000900D1124E80FF91F6087862FDF91CF91C7
:104CA0000895611102C006960895FC0121E0358542
:104CB000631739F02F5F35962031C9F780E090E017
:104CC0000895069635E0239F800D911D11240895C7
:104CD000CF92DF92FF920F931F93CF93DF9300D079
:104CE00000D0CDB7DEB78C01F62E19821A821B8256
:104CF0001C82462F61E10E9425254F2D60E1C801ED
:104D00000E9425254F2D64E0C8010E947E1283E099
:104D1000C82ED12CAE014F5F5F4F6F2DC8010E948E
:104D20004E258823E1F04F2D64E1C8010E9425251E
:104D30004F2D60E1C8010E94252564E170E080E00C
:104D400090E00E943A2A0F900F900F900F90DF9101
:104D5000CF911F910F91FF90DF90CF90089589819F
:104D60009A81AB81BC819D7F83309140A041B10588
:104D7000D1F264E670E080E090E00E943A2A81E09F
:104D8000C81AD10839F6CFCFA8E3B0E0EAECF6E2D2
:104D90000C942831DC011A963C91311117C1822EF6
:104DA000342E962E3C01FC01E280F380D701ED9178
:104DB000FC910190F081E02D60E0C70109958C0124
:104DC000009709F412C1FC01C080D180C114D10444
:104DD00009F4FEC05301F4E0AF0EB11CDC011196E2
:104DE000BC92AE9214968C92FE0131962F019F01D7
:104DF00048E050E060E0D30112968D919C911397AA
:104E00000E94DB24F80114828111E8C08D81893071
:104E100009F0E0C08980D701ED91FC910280F38117
:104E2000E02D232D41E0692DC7010995F30182870B
:104E3000882309F4D1C098859583682F8281938156
:104E40000E94AB24982E882391F0D801CD92DC9259
:104E5000D701ED91FC910480F581E02DD3011A96E4
:104E60006C91C7010995F3011286192DBFC0482D19
:104E7000413208F040E2D801CD92DC92411104C0E9
:104E8000A114B10461F4AFC050E09201F301628556
:104E9000828193810E94DB248111A3C0F1CFD301D1
:104EA0001A961C911A97612F12968D919C911397C7
:104EB0000E945126FC01892B09F497C01283B1820C
:104EC000A08282E083831F921F925F924F9288E0BC
:104ED000882E912C98E0A92EB12CC12CD12C29E23E
:104EE000E22E00E026E040EAF301628582819381B0
:104EF0000E940923182F0F900F900F900F9081118F
:104F000075C08B81D3011B968C931B97820120E087
:104F100048E050E01A966C911A9712968D919C91E8
:104F200013970E94FF2481115CC04B815C8120E0BB
:104F3000F3016285828193810E94FF24811151C017
:104F4000498150E08E010F5D1F4F20E0D3011A967A
:104F50006C911A9712968D919C9113970E94FF2441
:104F600081113FC01F921F921F921F92812C912C82
:104F7000A12CB12CE12C0E8129E040E0F3016285E7
:104F8000828193810E940923182F0F900F900F9018
:104F90000F9081112BC001E0D3011B968C918017DB
:104FA00038F0402F68E0C3010E947E120F5FF4CFFB
:104FB000D3011296ED91FC911397EA58FF4F80812F
:104FC0008460808381E050968C9310C019ED0EC0F0
:104FD00017ED0CC011ED0AC014ED08C0F801D18224
:104FE000C082182F03C018ED01C016ED812FE8967E
:104FF000E1E10C944431FC01613499F49C01255B9E
:105000003F4F61E0AC014E5F5F4F158666871786A4
:10501000548743873596E217F307B9F7FC011582E9
:10502000089521E03585631729F02F5F35962031EB
:10503000C9F70895622F0E94052208950F931F93C8
:10504000CF93DF938B01EA019091CB01943079F5F6
:105050008F708093E9008FEF9091E800815095FD6B
:1050600006C095ED9A95F1F700008111F5CF80917A
:10507000E80085FF1CC00E94B717882361F080916B
:10508000E8008E778093E80012C0F80181918F01CB
:105090008093F1002197209791F38091E80085FD9E
:1050A000F4CF8091E8008E778093E800E4CFDF9121
:1050B000CF911F910F91089578941F920F920FB680
:1050C0000F9211248F939F93AF93BF9380910E04FF
:1050D00090910F04A0911004B09111040196A11DAC
:1050E000B11D80930E0490930F04A0931004B0930D
:1050F0001104BF91AF919F918F910F900FBE0F90B0
:105100001F9018959C014FB7F89480910E049091D0
:105110000F04A0911004B09111044FBF821B930B98
:1051200008952FB7F89460910E0470910F04809148
:105130001004909111042FBF0895AEE0B0E0E3EAAF
:10514000F8E20C943331FC012089211102C010E0F7
:105150007EC07C010E949128F70104851585268573
:105160003785DC01CB01801B910BA20BB30BB7FD84
:10517000EECF81E090E09E878D878E010F5F1F4FFD
:105180009E01235F3F4F41E06285828193810E94AF
:10519000E52281114CC002E011E089818023C1F039
:1051A00019861A861B861C86AE01475F5F4F612FEA
:1051B000C7010E944E2581110BC0AE01475F5F4FB2
:1051C000612FC7010E94A712813B99F181112FC065
:1051D000000F1F5F183009F711E0F7018385811771
:1051E00040F119861A861B861C86AE01475F5F4F09
:1051F000612FC7010E944E25811117C089859A85AC
:10520000877091708130914081F48B859C8581609D
:105210009C878B87AE01475F5F4F612FC7010E945C
:10522000A712813B31F0811102C01F5FD6CF182F2A
:1052300001C010E00E949128DC01CB018C599F4FE6
:10524000AF4FBF4FF70184879587A687B787812F18
:105250002E96E6E00C944F312FB7F89480910E040F
:1052600090910F04A0911004B09111042FBF0895E4
:105270001F920F920FB60F9211248F939F93AF93AB
:10528000BF9380910D04811113C080910E04909101
:105290000F04A0911004B09111044196A11DB11DFD
:1052A00080930E0490930F04A0931004B093110404
:1052B000BF91AF919F918F910F900FBE0F901F9054
:1052C00018959C01FC0132969FEF80E041914617B2
:1052D00089F09F3F19F4411101C0982F8F5F8630EC
:1052E000A9F79F3F39F0F901E90FF11D97FDFA95F4
:1052F000628308950895A3E0B0E0E1E8F9E20C9438
:10530000373120910B0430910C0428173907A1F094
:1053100090930C0480930B04E0910904F0910A042B
:10532000309751F024E029839B838A830680F7819C
:10533000E02DCE01019609952396E2E00C945331BD
:10534000A3E0B0E0E6EAF9E20C94373120910704DB
:105350003091080428173907A1F09093080480932E
:105360000704E0910904F0910A04309751F023E01A
:1053700029839B838A830680F781E02DCE010196E5
:1053800009952396E2E00C945331E0910904F091E1
:105390000A04309729F00190F081E02D09950895D5
:1053A00080E008950F931F93CF93DF93182F062F5C
:1053B000EA010E94A70F12601EBDFE01802F882304
:1053C00039F00DB407FEFDCF91919EBD8150F7CF0E
:1053D000C00FD11D0DB407FEFDCF0E94A90FCE0155
:1053E000DF91CF911F910F910895CF93DF93C82F35
:1053F000D62F0E94A70FC260CEBD0DB407FEFDCF11
:10540000DEBD0DB407FEFDCF0E94A90FDF91CF9145
:105410000895CF93C82F0E94A70FCEBD0DB407FEED
:10542000FDCF1EBC0DB407FEFDCF0E94A90F8EB5A7
:10543000CF91089581E090E0089508958FEF9FEF58
:10544000089580E090E008950F931F93CF93DF932A
:10545000EC01DC01129688E0F80101900D928A952A
:10546000E1F70E9491287B876A87DF91CF911F9196
:105470000F9108958F929F92AF92BF92CF92DF9239
:10548000EF92FF920E94E92F4B015C0120E030E097
:105490004AE755E40E9478306B017C0120E030E05F
:1054A00040E85FE30E94B52F87FD24C020E03FEF76
:1054B0004FE757E4C701B6010E9473301816ACF4E9
:1054C00020E030E040E251E4C501B4010E947830B0
:1054D0000E94BA2F20E931E06115710581F0C90100
:1054E0000197F1F761507109F7CFC701B6010E942A
:1054F000BA2F02C061E070E0CB010197F1F7FF9095
:10550000EF90DF90CF90BF90AF909F908F900895D5
:105510000F931F93CF93DF93C42FD22FFC0182816F
:105520008823B1F0409326040E942C2990932504EF
:105530008093240480E28C0F883008F04DC0C7703F
:1055400081E001C0880FCA95EAF70E94381D44C067
:1055500080912604481330C0809124049091250442
:105560000E948228883C910538F510E21D0FCD1766
:10557000B9F080E28C0F883040F4C77081E001C040
:10558000880FCA95EAF70E94311D183010F581E0A6
:105590009D2F977001C0880F9A95EAF70E94381DD9
:1055A000802F0E94421D1830B8F4D77081E001C0EE
:1055B000880FDA95EAF70AC080E28C0F883060F431
:1055C000C77081E001C0880FCA95EAF70E94311DBB
:1055D00003C0802F0E94421DDF91CF911F910F9138
:1055E000089580912304882349F0809122048D7DC1
:1055F000809322040E9495191092230408958091AB
:10560000230481110FC010921F040E9488190E9468
:105610002C2988579C4E909321048093200481E08C
:105620008093230408950E942C2920911B042111AA
:1056300004C020911C04222321F09093180480932D
:10564000170420911D04211104C020911E0422235F
:1056500021F09093160480931504E0910904F091D1
:105660000A04309749F082E0809319040480F581A0
:10567000E02D89E194E0099508958091140480FD5E
:1056800016C081FD16C082FD18C0809113048823C6
:1056900091F0883290F428E0829FC001112468E2E2
:1056A00070E00E940D31862F672B29F007C082E041
:1056B000089584E0089581E0089588E00895809138
:1056C000140480FD14C081FD14C082FD16C08091B9
:1056D0001204882381F08E3180F420E5829FC0017E
:1056E00011246EE170E00E940D31862F089584E14F
:1056F000089588E2089588E0089580E50895A0E07F
:10570000B0E0E5E8FBE20C942E317C01D42F122F9F
:10571000902E00E06C01C60ED11CC60ED11C86E591
:10572000C80ED11CA42EB12CABE2AA0EB11CAA0C3F
:10573000BB1CAE0CBF1CF60180819181DC01ED9198
:10574000FC910280F381E02D292D412F6D2F0995C9
:10575000803EC9F4D1110BC061E088EE0E94F529AA
:1057600066E670E080E090E00E943A2A14C0F501FD
:1057700080819181DC01ED91FC910284F385E02D23
:10578000612F099508C08D3021F4033008F03FC027
:1057900014C081113FC0F60180819181DC01ED913F
:1057A000FC910190F081E02D292D412F6D2F09955D
:1057B000C82F8D3051F4033050F464E670E080E07F
:1057C00090E00E943A2A0F5FB6CF882311F1D111E1
:1057D0000BC061E088EE0E94F52966E670E080E08B
:1057E00090E00E943A2A11C0ED2FF0E0BB96EE0F38
:1057F000FF1FEE0DFF1D80819181DC01ED91FC9179
:105800000284F385E02D612F09958C2F03C08DE074
:1058100001C080E0CDB7DEB7EBE00C944A31A6E1E1
:10582000B0E0E5E1FCE20C9427311B8A38E03C8BC8
:105830003CE33D8B8A3F3FEF930711F486EDE7C0D1
:10584000122F442E562E7C01DC011696CD90DC9052
:105850001797CE01439617969C938E9316971A9698
:105860002C939E012F5F3F4F42E150E060E0C70163
:105870000E94DB24F701D782C6828111C8C08984C7
:105880009A846B847C84FD81FE8B2E80670136E5D3
:10589000C30ED11C5601312CD5018D919C910097DE
:1058A000D9F1DC01ED91FC910084F185E02D0995A1
:1058B000811132C0F50180819181DC01ED91FC9173
:1058C0000088F189E02D622D0995882329F1F501E1
:1058D00080819181DC01ED91FC910484F585E02DBE
:1058E000A301B401099581110DC0F5018081918159
:1058F000DC01ED91FC910684F785E02D6E89099518
:10590000882351F0012F242D452D632DC7010E94BE
:105910007F2B813D09F07BC03394B2E0AB0EB11C0C
:10592000E0E13E12B9CFB12CF60180819181009760
:10593000E1F1DC01ED91FC910084F185E02D099508
:10594000811133C0F60180819181DC01ED91FC91E0
:105950000088F189E02D622D09958823D9F0F601A0
:1059600080819181DC01ED91FC910484F585E02D2D
:10597000A301B4010995811118C0F60180819181BC
:10598000DC01ED91FC910684F785E02D6E89099587
:1059900081110BC0012F242D452D6B2DC7010E94B5
:1059A0007F2B982F977F913D91F5B394F2E0CF0E26
:1059B000D11C30E1B312B8CFF70186819781892BD2
:1059C00009F11287242D40E0652DC7010E94F825BA
:1059D000D82E8823C9F0682FC7010E94512600974E
:1059E00009F42CCFDC0114961C936D2DC7010E9485
:1059F000AB24182F882351F06D2DC7010E94FB277F
:105A0000812F05C087ED03C084ED01C080E066965C
:105A1000E2E10C944331A0E0B0E0E1E1FDE20C945E
:105A20002D31862E942E59010E9491286B017C0104
:105A300028E8C20E23E1D21EE11CF11CC0E000E008
:105A400010E0D0E098280E949128DC01CB018C194D
:105A50009D09AE09BF09B7FF2DC0692D80EF0E94D7
:105A6000F5290E949128DC01CB018C199D09AE0912
:105A7000BF09B7FF09C088EC0E94092A87FFF1CF50
:105A800060E888EC0E94F52988EF0E94092AC82F57
:105A9000CF70C43019F0CE3051F00CC00F5F1F4FE3
:105AA000A114B10481F20A151B0569F603C0DF5F7A
:105AB000D33049F68C2FCDB7DEB7ECE00C944931EA
:105AC000A5E0B0E0E6E6FDE20C9427313C017B0165
:105AD0005A8349836901F901A080B180FB012180CB
